{
  "_format": "hh-sol-artifact-1",
  "contractName": "EpicNFT",
  "sourceName": "contracts/EpicNFT.sol",
  "abi": [
    {
      "inputs": [],
      "stateMutability": "nonpayable",
      "type": "constructor"
    },
    {
      "anonymous": false,
      "inputs": [
        {
          "indexed": true,
          "internalType": "address",
          "name": "owner",
          "type": "address"
        },
        {
          "indexed": true,
          "internalType": "address",
          "name": "approved",
          "type": "address"
        },
        {
          "indexed": true,
          "internalType": "uint256",
          "name": "tokenId",
          "type": "uint256"
        }
      ],
      "name": "Approval",
      "type": "event"
    },
    {
      "anonymous": false,
      "inputs": [
        {
          "indexed": true,
          "internalType": "address",
          "name": "owner",
          "type": "address"
        },
        {
          "indexed": true,
          "internalType": "address",
          "name": "operator",
          "type": "address"
        },
        {
          "indexed": false,
          "internalType": "bool",
          "name": "approved",
          "type": "bool"
        }
      ],
      "name": "ApprovalForAll",
      "type": "event"
    },
    {
      "anonymous": false,
      "inputs": [
        {
          "indexed": false,
          "internalType": "address",
          "name": "sender",
          "type": "address"
        },
        {
          "indexed": false,
          "internalType": "uint256",
          "name": "tokenId",
          "type": "uint256"
        }
      ],
      "name": "NewEpicNFTMinted",
      "type": "event"
    },
    {
      "anonymous": false,
      "inputs": [
        {
          "indexed": true,
          "internalType": "address",
          "name": "from",
          "type": "address"
        },
        {
          "indexed": true,
          "internalType": "address",
          "name": "to",
          "type": "address"
        },
        {
          "indexed": true,
          "internalType": "uint256",
          "name": "tokenId",
          "type": "uint256"
        }
      ],
      "name": "Transfer",
      "type": "event"
    },
    {
      "inputs": [
        {
          "internalType": "address",
          "name": "to",
          "type": "address"
        },
        {
          "internalType": "uint256",
          "name": "tokenId",
          "type": "uint256"
        }
      ],
      "name": "approve",
      "outputs": [],
      "stateMutability": "nonpayable",
      "type": "function"
    },
    {
      "inputs": [
        {
          "internalType": "address",
          "name": "owner",
          "type": "address"
        }
      ],
      "name": "balanceOf",
      "outputs": [
        {
          "internalType": "uint256",
          "name": "",
          "type": "uint256"
        }
      ],
      "stateMutability": "view",
      "type": "function"
    },
    {
      "inputs": [
        {
          "internalType": "uint256",
          "name": "tokenId",
          "type": "uint256"
        }
      ],
      "name": "getApproved",
      "outputs": [
        {
          "internalType": "address",
          "name": "",
          "type": "address"
        }
      ],
      "stateMutability": "view",
      "type": "function"
    },
    {
      "inputs": [],
      "name": "getTotalNFTsMintedSoFar",
      "outputs": [
        {
          "internalType": "uint256",
          "name": "",
          "type": "uint256"
        }
      ],
      "stateMutability": "view",
      "type": "function"
    },
    {
      "inputs": [
        {
          "internalType": "address",
          "name": "owner",
          "type": "address"
        },
        {
          "internalType": "address",
          "name": "operator",
          "type": "address"
        }
      ],
      "name": "isApprovedForAll",
      "outputs": [
        {
          "internalType": "bool",
          "name": "",
          "type": "bool"
        }
      ],
      "stateMutability": "view",
      "type": "function"
    },
    {
      "inputs": [],
      "name": "makeAnEpicNFT",
      "outputs": [],
      "stateMutability": "nonpayable",
      "type": "function"
    },
    {
      "inputs": [],
      "name": "name",
      "outputs": [
        {
          "internalType": "string",
          "name": "",
          "type": "string"
        }
      ],
      "stateMutability": "view",
      "type": "function"
    },
    {
      "inputs": [
        {
          "internalType": "uint256",
          "name": "tokenId",
          "type": "uint256"
        }
      ],
      "name": "ownerOf",
      "outputs": [
        {
          "internalType": "address",
          "name": "",
          "type": "address"
        }
      ],
      "stateMutability": "view",
      "type": "function"
    },
    {
      "inputs": [
        {
          "internalType": "uint256",
          "name": "tokenId",
          "type": "uint256"
        }
      ],
      "name": "pickRandomColor",
      "outputs": [
        {
          "internalType": "string",
          "name": "",
          "type": "string"
        }
      ],
      "stateMutability": "view",
      "type": "function"
    },
    {
      "inputs": [
        {
          "internalType": "uint256",
          "name": "tokenId",
          "type": "uint256"
        }
      ],
      "name": "pickRandomFirstWord",
      "outputs": [
        {
          "internalType": "string",
          "name": "",
          "type": "string"
        }
      ],
      "stateMutability": "view",
      "type": "function"
    },
    {
      "inputs": [
        {
          "internalType": "uint256",
          "name": "tokenId",
          "type": "uint256"
        }
      ],
      "name": "pickRandomSecondWord",
      "outputs": [
        {
          "internalType": "string",
          "name": "",
          "type": "string"
        }
      ],
      "stateMutability": "view",
      "type": "function"
    },
    {
      "inputs": [
        {
          "internalType": "uint256",
          "name": "tokenId",
          "type": "uint256"
        }
      ],
      "name": "pickRandomThirdWord",
      "outputs": [
        {
          "internalType": "string",
          "name": "",
          "type": "string"
        }
      ],
      "stateMutability": "view",
      "type": "function"
    },
    {
      "inputs": [
        {
          "internalType": "address",
          "name": "from",
          "type": "address"
        },
        {
          "internalType": "address",
          "name": "to",
          "type": "address"
        },
        {
          "internalType": "uint256",
          "name": "tokenId",
          "type": "uint256"
        }
      ],
      "name": "safeTransferFrom",
      "outputs": [],
      "stateMutability": "nonpayable",
      "type": "function"
    },
    {
      "inputs": [
        {
          "internalType": "address",
          "name": "from",
          "type": "address"
        },
        {
          "internalType": "address",
          "name": "to",
          "type": "address"
        },
        {
          "internalType": "uint256",
          "name": "tokenId",
          "type": "uint256"
        },
        {
          "internalType": "bytes",
          "name": "_data",
          "type": "bytes"
        }
      ],
      "name": "safeTransferFrom",
      "outputs": [],
      "stateMutability": "nonpayable",
      "type": "function"
    },
    {
      "inputs": [
        {
          "internalType": "address",
          "name": "operator",
          "type": "address"
        },
        {
          "internalType": "bool",
          "name": "approved",
          "type": "bool"
        }
      ],
      "name": "setApprovalForAll",
      "outputs": [],
      "stateMutability": "nonpayable",
      "type": "function"
    },
    {
      "inputs": [
        {
          "internalType": "bytes4",
          "name": "interfaceId",
          "type": "bytes4"
        }
      ],
      "name": "supportsInterface",
      "outputs": [
        {
          "internalType": "bool",
          "name": "",
          "type": "bool"
        }
      ],
      "stateMutability": "view",
      "type": "function"
    },
    {
      "inputs": [],
      "name": "symbol",
      "outputs": [
        {
          "internalType": "string",
          "name": "",
          "type": "string"
        }
      ],
      "stateMutability": "view",
      "type": "function"
    },
    {
      "inputs": [
        {
          "internalType": "uint256",
          "name": "tokenId",
          "type": "uint256"
        }
      ],
      "name": "tokenURI",
      "outputs": [
        {
          "internalType": "string",
          "name": "",
          "type": "string"
        }
      ],
      "stateMutability": "view",
      "type": "function"
    },
    {
      "inputs": [],
      "name": "totalNftsMinted",
      "outputs": [
        {
          "internalType": "uint256",
          "name": "",
          "type": "uint256"
        }
      ],
      "stateMutability": "view",
      "type": "function"
    },
    {
      "inputs": [
        {
          "internalType": "address",
          "name": "from",
          "type": "address"
        },
        {
          "internalType": "address",
          "name": "to",
          "type": "address"
        },
        {
          "internalType": "uint256",
          "name": "tokenId",
          "type": "uint256"
        }
      ],
      "name": "transferFrom",
      "outputs": [],
      "stateMutability": "nonpayable",
      "type": "function"
    }
  ],
  "bytecode": "0x6080604052600060085560405180610100016040528060d381526020016200515860d39139600990805190602001906200003b9291906200100a565b506040518060800160405280605681526020016200522b60569139600a90805190602001906200006d9291906200100a565b50604051806101e001604052806040518060400160405280600981526020017f42756c626173617572000000000000000000000000000000000000000000000081525081526020016040518060400160405280600a81526020017f436861726d616e6465720000000000000000000000000000000000000000000081525081526020016040518060400160405280600881526020017f5371756972746c6500000000000000000000000000000000000000000000000081525081526020016040518060400160405280600681526020017f4d657774776f000000000000000000000000000000000000000000000000000081525081526020016040518060400160405280600381526020017f4d6577000000000000000000000000000000000000000000000000000000000081525081526020016040518060400160405280600981526020017f447261676f6e697465000000000000000000000000000000000000000000000081525081526020016040518060400160405280600781526020017f46726f616b69650000000000000000000000000000000000000000000000000081525081526020016040518060400160405280600581526020017f456576656500000000000000000000000000000000000000000000000000000081525081526020016040518060400160405280600781526020017f50696b616368750000000000000000000000000000000000000000000000000081525081526020016040518060400160405280600581526020017f446974746f00000000000000000000000000000000000000000000000000000081525081526020016040518060400160405280600681526020017f43656c656269000000000000000000000000000000000000000000000000000081525081526020016040518060400160405280600781526020017f5073796475636b0000000000000000000000000000000000000000000000000081525081526020016040518060400160405280600881526020017f536c6f77706f6b6500000000000000000000000000000000000000000000000081525081526020016040518060400160405280600681526020017f5069706c7570000000000000000000000000000000000000000000000000000081525081526020016040518060400160405280600881526020017f4d6167696b617270000000000000000000000000000000000000000000000000815250815250600b90600f620003ff9291906200109b565b50604051806101a001604052806040518060400160405280600481526020017f656174730000000000000000000000000000000000000000000000000000000081525081526020016040518060400160405280600581526020017f6c6f76657300000000000000000000000000000000000000000000000000000081525081526020016040518060400160405280600581526020017f686174657300000000000000000000000000000000000000000000000000000081525081526020016040518060400160405280600481526020017f687567730000000000000000000000000000000000000000000000000000000081525081526020016040518060400160405280600281526020017f697300000000000000000000000000000000000000000000000000000000000081525081526020016040518060400160405280600881526020017f6469736c696b657300000000000000000000000000000000000000000000000081525081526020016040518060400160405280600581526020017f6c696b657300000000000000000000000000000000000000000000000000000081525081526020016040518060400160405280600681526020017f627265616b73000000000000000000000000000000000000000000000000000081525081526020016040518060400160405280600681526020017f7468726f7773000000000000000000000000000000000000000000000000000081525081526020016040518060400160405280600781526020017f736d61736865730000000000000000000000000000000000000000000000000081525081526020016040518060400160405280600581526020017f73656c6c7300000000000000000000000000000000000000000000000000000081525081526020016040518060400160405280600881526020017f636f6c6c6563747300000000000000000000000000000000000000000000000081525081526020016040518060400160405280600581526020017f6d696e7473000000000000000000000000000000000000000000000000000000815250815250600c90600d6200071b92919062001102565b506040518061030001604052806040518060400160405280600681526020017f4170706c6573000000000000000000000000000000000000000000000000000081525081526020016040518060400160405280600881526020017f41707269636f747300000000000000000000000000000000000000000000000081525081526020016040518060400160405280600881526020017f41766f6361646f7300000000000000000000000000000000000000000000000081525081526020016040518060400160405280600781526020017f42616e616e61730000000000000000000000000000000000000000000000000081525081526020016040518060400160405280600b81526020017f426c75656265727269657300000000000000000000000000000000000000000081525081526020016040518060400160405280600881526020017f436865727269657300000000000000000000000000000000000000000000000081525081526020016040518060400160405280600b81526020017f4372616e6265727269657300000000000000000000000000000000000000000081525081526020016040518060400160405280600981526020017f437563756d62657273000000000000000000000000000000000000000000000081525081526020016040518060400160405280600681526020017f477261706573000000000000000000000000000000000000000000000000000081525081526020016040518060400160405280600a81526020017f477261706566727569740000000000000000000000000000000000000000000081525081526020016040518060400160405280600581526020017f4b6977697300000000000000000000000000000000000000000000000000000081525081526020016040518060400160405280600681526020017f4c656d6f6e73000000000000000000000000000000000000000000000000000081525081526020016040518060400160405280600581526020017f4c696d657300000000000000000000000000000000000000000000000000000081525081526020016040518060400160405280600681526020017f4d616e676f73000000000000000000000000000000000000000000000000000081525081526020016040518060400160405280600681526020017f4d656c6f6e73000000000000000000000000000000000000000000000000000081525081526020016040518060400160405280600a81526020017f4e6563746172696e65730000000000000000000000000000000000000000000081525081526020016040518060400160405280600781526020017f4f72616e6765730000000000000000000000000000000000000000000000000081525081526020016040518060400160405280600581526020017f506561727300000000000000000000000000000000000000000000000000000081525081526020016040518060400160405280600a81526020017f50696e656170706c65730000000000000000000000000000000000000000000081525081526020016040518060400160405280600581526020017f506c756d7300000000000000000000000000000000000000000000000000000081525081526020016040518060400160405280600b81526020017f526173706265727269657300000000000000000000000000000000000000000081525081526020016040518060400160405280600c81526020017f537472617762657272696573000000000000000000000000000000000000000081525081526020016040518060400160405280600881526020017f546f6d61746f657300000000000000000000000000000000000000000000000081525081526020016040518060400160405280600b81526020017f57617465726d656c6f6e73000000000000000000000000000000000000000000815250815250600d90601862000cc092919062001169565b506040518060c001604052806040518060400160405280600381526020017f726564000000000000000000000000000000000000000000000000000000000081525081526020016040518060400160405280600781526020017f233038433241380000000000000000000000000000000000000000000000000081525081526020016040518060400160405280600581526020017f626c61636b00000000000000000000000000000000000000000000000000000081525081526020016040518060400160405280600681526020017f79656c6c6f77000000000000000000000000000000000000000000000000000081525081526020016040518060400160405280600481526020017f626c75650000000000000000000000000000000000000000000000000000000081525081526020016040518060400160405280600581526020017f677265656e000000000000000000000000000000000000000000000000000000815250815250600e90600662000e3e929190620011d0565b5034801562000e4c57600080fd5b506040518060400160405280600981526020017f5371756172654e465400000000000000000000000000000000000000000000008152506040518060400160405280600681526020017f5351554152450000000000000000000000000000000000000000000000000000815250816000908051906020019062000ed19291906200100a565b50806001908051906020019062000eea9291906200100a565b50505062000f386040518060400160405280601b81526020017f43726561746564205371756172654e465420636f6e747261637421000000000081525062000f3e60201b620014561760201c565b620013f1565b62000fde8160405160240162000f55919062001305565b6040516020818303038152906040527f41304fac000000000000000000000000000000000000000000000000000000007bffffffffffffffffffffffffffffffffffffffffffffffffffffffff19166020820180517bffffffffffffffffffffffffffffffffffffffffffffffffffffffff838183161783525050505062000fe160201b60201c565b50565b60008151905060006a636f6e736f6c652e6c6f679050602083016000808483855afa5050505050565b82805462001018906200137b565b90600052602060002090601f0160209004810192826200103c576000855562001088565b82601f106200105757805160ff191683800117855562001088565b8280016001018555821562001088579182015b82811115620010875782518255916020019190600101906200106a565b5b50905062001097919062001237565b5090565b828054828255906000526020600020908101928215620010ef579160200282015b82811115620010ee578251829080519060200190620010dd9291906200100a565b5091602001919060010190620010bc565b5b509050620010fe919062001256565b5090565b82805482825590600052602060002090810192821562001156579160200282015b8281111562001155578251829080519060200190620011449291906200100a565b509160200191906001019062001123565b5b50905062001165919062001256565b5090565b828054828255906000526020600020908101928215620011bd579160200282015b82811115620011bc578251829080519060200190620011ab9291906200100a565b50916020019190600101906200118a565b5b509050620011cc919062001256565b5090565b82805482825590600052602060002090810192821562001224579160200282015b8281111562001223578251829080519060200190620012129291906200100a565b5091602001919060010190620011f1565b5b50905062001233919062001256565b5090565b5b808211156200125257600081600090555060010162001238565b5090565b5b808211156200127a57600081816200127091906200127e565b5060010162001257565b5090565b5080546200128c906200137b565b6000825580601f10620012a05750620012c1565b601f016020900490600052602060002090810190620012c0919062001237565b5b50565b6000620012d18262001329565b620012dd818562001334565b9350620012ef81856020860162001345565b620012fa81620013e0565b840191505092915050565b60006020820190508181036000830152620013218184620012c4565b905092915050565b600081519050919050565b600082825260208201905092915050565b60005b838110156200136557808201518184015260208101905062001348565b8381111562001375576000848401525b50505050565b600060028204905060018216806200139457607f821691505b60208210811415620013ab57620013aa620013b1565b5b50919050565b7f4e487b7100000000000000000000000000000000000000000000000000000000600052602260045260246000fd5b6000601f19601f8301169050919050565b613d5780620014016000396000f3fe608060405234801561001057600080fd5b506004361061012c5760003560e01c806370a08231116100ad578063b88d4fde11610071578063b88d4fde14610369578063c575757a14610385578063c87b56dd146103b5578063de9d132f146103e5578063e985e9c5146103ef5761012c565b806370a08231146102b157806372fbaacb146102e157806395d89b41146102ff578063a22cb4651461031d578063b187301f146103395761012c565b806323b872dd116100f457806323b872dd146101e95780632de38d681461020557806342842e0e14610235578063514dc8c6146102515780636352211e146102815761012c565b806301ffc9a714610131578063060475901461016157806306fdde031461017f578063081812fc1461019d578063095ea7b3146101cd575b600080fd5b61014b600480360381019061014691906126e9565b61041f565b6040516101589190612eae565b60405180910390f35b610169610501565b6040516101769190613149565b60405180910390f35b61018761050b565b6040516101949190612ec9565b60405180910390f35b6101b760048036038101906101b2919061273b565b61059d565b6040516101c49190612e1e565b60405180910390f35b6101e760048036038101906101e291906126ad565b610622565b005b61020360048036038101906101fe91906125a7565b61073a565b005b61021f600480360381019061021a919061273b565b61079a565b60405161022c9190612ec9565b60405180910390f35b61024f600480360381019061024a91906125a7565b6108b8565b005b61026b6004803603810190610266919061273b565b6108d8565b6040516102789190612ec9565b60405180910390f35b61029b6004803603810190610296919061273b565b6109f6565b6040516102a89190612e1e565b60405180910390f35b6102cb60048036038101906102c69190612542565b610aa8565b6040516102d89190613149565b60405180910390f35b6102e9610b60565b6040516102f69190613149565b60405180910390f35b610307610b66565b6040516103149190612ec9565b60405180910390f35b61033760048036038101906103329190612671565b610bf8565b005b610353600480360381019061034e919061273b565b610d79565b6040516103609190612ec9565b60405180910390f35b610383600480360381019061037e91906125f6565b610e97565b005b61039f600480360381019061039a919061273b565b610ef9565b6040516103ac9190612ec9565b60405180910390f35b6103cf60048036038101906103ca919061273b565b611017565b6040516103dc9190612ec9565b60405180910390f35b6103ed611169565b005b6104096004803603810190610404919061256b565b6113c2565b6040516104169190612eae565b60405180910390f35b60007f80ac58cd000000000000000000000000000000000000000000000000000000007bffffffffffffffffffffffffffffffffffffffffffffffffffffffff1916827bffffffffffffffffffffffffffffffffffffffffffffffffffffffff191614806104ea57507f5b5e139f000000000000000000000000000000000000000000000000000000007bffffffffffffffffffffffffffffffffffffffffffffffffffffffff1916827bffffffffffffffffffffffffffffffffffffffffffffffffffffffff1916145b806104fa57506104f9826114ef565b5b9050919050565b6000600854905090565b60606000805461051a906133dd565b80601f0160208091040260200160405190810160405280929190818152602001828054610546906133dd565b80156105935780601f1061056857610100808354040283529160200191610593565b820191906000526020600020905b81548152906001019060200180831161057657829003601f168201915b5050505050905090565b60006105a882611559565b6105e7576040517f08c379a00000000000000000000000000000000000000000000000000000000081526004016105de906130a9565b60405180910390fd5b6004600083815260200190815260200160002060009054906101000a900473ffffffffffffffffffffffffffffffffffffffff169050919050565b600061062d826109f6565b90508073ffffffffffffffffffffffffffffffffffffffff168373ffffffffffffffffffffffffffffffffffffffff16141561069e576040517f08c379a000000000000000000000000000000000000000000000000000000000815260040161069590613109565b60405180910390fd5b8073ffffffffffffffffffffffffffffffffffffffff166106bd6115c5565b73ffffffffffffffffffffffffffffffffffffffff1614806106ec57506106eb816106e66115c5565b6113c2565b5b61072b576040517f08c379a000000000000000000000000000000000000000000000000000000000815260040161072290612fe9565b60405180910390fd5b61073583836115cd565b505050565b61074b6107456115c5565b82611686565b61078a576040517f08c379a000000000000000000000000000000000000000000000000000000000815260040161078190613129565b60405180910390fd5b610795838383611764565b505050565b606060006107ce6107aa846119c0565b6040516020016107ba9190612db8565b604051602081830303815290604052611b6d565b9050600b80549050816107e19190613489565b9050600b818154811061081d577f4e487b7100000000000000000000000000000000000000000000000000000000600052603260045260246000fd5b906000526020600020018054610832906133dd565b80601f016020809104026020016040519081016040528092919081815260200182805461085e906133dd565b80156108ab5780601f10610880576101008083540402835291602001916108ab565b820191906000526020600020905b81548152906001019060200180831161088e57829003601f168201915b5050505050915050919050565b6108d383838360405180602001604052806000815250610e97565b505050565b6060600061090c6108e8846119c0565b6040516020016108f89190612dfc565b604051602081830303815290604052611b6d565b9050600e805490508161091f9190613489565b9050600e818154811061095b577f4e487b7100000000000000000000000000000000000000000000000000000000600052603260045260246000fd5b906000526020600020018054610970906133dd565b80601f016020809104026020016040519081016040528092919081815260200182805461099c906133dd565b80156109e95780601f106109be576101008083540402835291602001916109e9565b820191906000526020600020905b8154815290600101906020018083116109cc57829003601f168201915b5050505050915050919050565b6000806002600084815260200190815260200160002060009054906101000a900473ffffffffffffffffffffffffffffffffffffffff169050600073ffffffffffffffffffffffffffffffffffffffff168173ffffffffffffffffffffffffffffffffffffffff161415610a9f576040517f08c379a0000000000000000000000000000000000000000000000000000000008152600401610a9690613029565b60405180910390fd5b80915050919050565b60008073ffffffffffffffffffffffffffffffffffffffff168273ffffffffffffffffffffffffffffffffffffffff161415610b19576040517f08c379a0000000000000000000000000000000000000000000000000000000008152600401610b1090613009565b60405180910390fd5b600360008373ffffffffffffffffffffffffffffffffffffffff1673ffffffffffffffffffffffffffffffffffffffff168152602001908152602001600020549050919050565b60085481565b606060018054610b75906133dd565b80601f0160208091040260200160405190810160405280929190818152602001828054610ba1906133dd565b8015610bee5780601f10610bc357610100808354040283529160200191610bee565b820191906000526020600020905b815481529060010190602001808311610bd157829003601f168201915b5050505050905090565b610c006115c5565b73ffffffffffffffffffffffffffffffffffffffff168273ffffffffffffffffffffffffffffffffffffffff161415610c6e576040517f08c379a0000000000000000000000000000000000000000000000000000000008152600401610c6590612f89565b60405180910390fd5b8060056000610c7b6115c5565b73ffffffffffffffffffffffffffffffffffffffff1673ffffffffffffffffffffffffffffffffffffffff16815260200190815260200160002060008473ffffffffffffffffffffffffffffffffffffffff1673ffffffffffffffffffffffffffffffffffffffff16815260200190815260200160002060006101000a81548160ff0219169083151502179055508173ffffffffffffffffffffffffffffffffffffffff16610d286115c5565b73ffffffffffffffffffffffffffffffffffffffff167f17307eab39ab6107e8899845ad3d59bd9653f200f220920489ca2b5937696c3183604051610d6d9190612eae565b60405180910390a35050565b60606000610dad610d89846119c0565b604051602001610d999190612d51565b604051602081830303815290604052611b6d565b9050600c8054905081610dc09190613489565b9050600c8181548110610dfc577f4e487b7100000000000000000000000000000000000000000000000000000000600052603260045260246000fd5b906000526020600020018054610e11906133dd565b80601f0160208091040260200160405190810160405280929190818152602001828054610e3d906133dd565b8015610e8a5780601f10610e5f57610100808354040283529160200191610e8a565b820191906000526020600020905b815481529060010190602001808311610e6d57829003601f168201915b5050505050915050919050565b610ea8610ea26115c5565b83611686565b610ee7576040517f08c379a0000000000000000000000000000000000000000000000000000000008152600401610ede90613129565b60405180910390fd5b610ef384848484611ba0565b50505050565b60606000610f2d610f09846119c0565b604051602001610f199190612d2f565b604051602081830303815290604052611b6d565b9050600d8054905081610f409190613489565b9050600d8181548110610f7c577f4e487b7100000000000000000000000000000000000000000000000000000000600052603260045260246000fd5b906000526020600020018054610f91906133dd565b80601f0160208091040260200160405190810160405280929190818152602001828054610fbd906133dd565b801561100a5780601f10610fdf5761010080835404028352916020019161100a565b820191906000526020600020905b815481529060010190602001808311610fed57829003601f168201915b5050505050915050919050565b606061102282611559565b611061576040517f08c379a000000000000000000000000000000000000000000000000000000000815260040161105890613089565b60405180910390fd5b6000600660008481526020019081526020016000208054611081906133dd565b80601f01602080910402602001604051908101604052809291908181526020018280546110ad906133dd565b80156110fa5780601f106110cf576101008083540402835291602001916110fa565b820191906000526020600020905b8154815290600101906020018083116110dd57829003601f168201915b50505050509050600061110b611bfc565b9050600081511415611121578192505050611164565b60008251111561115657808260405160200161113e929190612c7b565b60405160208183030381529060405292505050611164565b61115f84611c13565b925050505b919050565b6032600854106111ae576040517f08c379a00000000000000000000000000000000000000000000000000000000081526004016111a590612fa9565b60405180910390fd5b60006111ba6007611cba565b905060006111c78261079a565b905060006111d483610d79565b905060006111e184610ef9565b905060008383836040516020016111fa93929190612c9f565b60405160208183030381529060405290506000611216866108d8565b90506000600982600a856040516020016112339493929190612ce6565b604051602081830303815290604052905060006112788461125384611cc8565b604051602001611264929190612d73565b604051602081830303815290604052611cc8565b905060008160405160200161128d9190612dda565b60405160208183030381529060405290506112dc6040518060400160405280601581526020017f0a2d2d2d2d2d2d2d2d2d2d2d2d2d2d2d2d2d2d2d2d0000000000000000000000815250611456565b6112e581611456565b6113236040518060400160405280601581526020017f2d2d2d2d2d2d2d2d2d2d2d2d2d2d2d2d2d2d2d2d0a0000000000000000000000815250611456565b61132d338a611e86565b6113378982611ea4565b61135a604051806060016040528060258152602001613cbd602591398a33611f18565b6113646007611fb7565b6001600860008282546113779190613212565b925050819055507febb98688741ffa4c7589bf325de30cf7becb63de567842e1ccdb6cb949fdc82c338a6040516113af929190612e85565b60405180910390a1505050505050505050565b6000600560008473ffffffffffffffffffffffffffffffffffffffff1673ffffffffffffffffffffffffffffffffffffffff16815260200190815260200160002060008373ffffffffffffffffffffffffffffffffffffffff1673ffffffffffffffffffffffffffffffffffffffff16815260200190815260200160002060009054906101000a900460ff16905092915050565b6114ec8160405160240161146a9190612ec9565b6040516020818303038152906040527f41304fac000000000000000000000000000000000000000000000000000000007bffffffffffffffffffffffffffffffffffffffffffffffffffffffff19166020820180517bffffffffffffffffffffffffffffffffffffffffffffffffffffffff8381831617835250505050611fcd565b50565b60007f01ffc9a7000000000000000000000000000000000000000000000000000000007bffffffffffffffffffffffffffffffffffffffffffffffffffffffff1916827bffffffffffffffffffffffffffffffffffffffffffffffffffffffff1916149050919050565b60008073ffffffffffffffffffffffffffffffffffffffff166002600084815260200190815260200160002060009054906101000a900473ffffffffffffffffffffffffffffffffffffffff1673ffffffffffffffffffffffffffffffffffffffff1614159050919050565b600033905090565b816004600083815260200190815260200160002060006101000a81548173ffffffffffffffffffffffffffffffffffffffff021916908373ffffffffffffffffffffffffffffffffffffffff160217905550808273ffffffffffffffffffffffffffffffffffffffff16611640836109f6565b73ffffffffffffffffffffffffffffffffffffffff167f8c5be1e5ebec7d5bd14f71427d1e84f3dd0314c0f7b2291e5b200ac8c7c3b92560405160405180910390a45050565b600061169182611559565b6116d0576040517f08c379a00000000000000000000000000000000000000000000000000000000081526004016116c790612fc9565b60405180910390fd5b60006116db836109f6565b90508073ffffffffffffffffffffffffffffffffffffffff168473ffffffffffffffffffffffffffffffffffffffff16148061174a57508373ffffffffffffffffffffffffffffffffffffffff166117328461059d565b73ffffffffffffffffffffffffffffffffffffffff16145b8061175b575061175a81856113c2565b5b91505092915050565b8273ffffffffffffffffffffffffffffffffffffffff16611784826109f6565b73ffffffffffffffffffffffffffffffffffffffff16146117da576040517f08c379a00000000000000000000000000000000000000000000000000000000081526004016117d1906130c9565b60405180910390fd5b600073ffffffffffffffffffffffffffffffffffffffff168273ffffffffffffffffffffffffffffffffffffffff16141561184a576040517f08c379a000000000000000000000000000000000000000000000000000000000815260040161184190612f69565b60405180910390fd5b611855838383611ff6565b6118606000826115cd565b6001600360008573ffffffffffffffffffffffffffffffffffffffff1673ffffffffffffffffffffffffffffffffffffffff16815260200190815260200160002060008282546118b091906132f3565b925050819055506001600360008473ffffffffffffffffffffffffffffffffffffffff1673ffffffffffffffffffffffffffffffffffffffff16815260200190815260200160002060008282546119079190613212565b92505081905550816002600083815260200190815260200160002060006101000a81548173ffffffffffffffffffffffffffffffffffffffff021916908373ffffffffffffffffffffffffffffffffffffffff160217905550808273ffffffffffffffffffffffffffffffffffffffff168473ffffffffffffffffffffffffffffffffffffffff167fddf252ad1be2c89b69c2b068fc378daa952ba7f163c4a11628f55a4df523b3ef60405160405180910390a4505050565b60606000821415611a08576040518060400160405280600181526020017f30000000000000000000000000000000000000000000000000000000000000008152509050611b68565b600082905060005b60008214611a3a578080611a2390613440565b915050600a82611a339190613268565b9150611a10565b60008167ffffffffffffffff811115611a7c577f4e487b7100000000000000000000000000000000000000000000000000000000600052604160045260246000fd5b6040519080825280601f01601f191660200182016040528015611aae5781602001600182028036833780820191505090505b5090505b60008514611b6157600182611ac791906132f3565b9150600a85611ad69190613489565b6030611ae29190613212565b60f81b818381518110611b1e577f4e487b7100000000000000000000000000000000000000000000000000000000600052603260045260246000fd5b60200101907effffffffffffffffffffffffffffffffffffffffffffffffffffffffffffff1916908160001a905350600a85611b5a9190613268565b9450611ab2565b8093505050505b919050565b600081604051602001611b809190612c64565b6040516020818303038152906040528051906020012060001c9050919050565b611bab848484611764565b611bb784848484611ffb565b611bf6576040517f08c379a0000000000000000000000000000000000000000000000000000000008152600401611bed90612f29565b60405180910390fd5b50505050565b606060405180602001604052806000815250905090565b6060611c1e82611559565b611c5d576040517f08c379a0000000000000000000000000000000000000000000000000000000008152600401611c54906130e9565b60405180910390fd5b6000611c67611bfc565b90506000815111611c875760405180602001604052806000815250611cb2565b80611c91846119c0565b604051602001611ca2929190612c7b565b6040516020818303038152906040525b915050919050565b600081600001549050919050565b60606000825190506000811415611cf15760405180602001604052806000815250915050611e81565b60006003600283611d029190613212565b611d0c9190613268565b6004611d189190613299565b90506000602082611d299190613212565b67ffffffffffffffff811115611d68577f4e487b7100000000000000000000000000000000000000000000000000000000600052604160045260246000fd5b6040519080825280601f01601f191660200182016040528015611d9a5781602001600182028036833780820191505090505b5090506000604051806060016040528060408152602001613ce2604091399050600181016020830160005b86811015611e3e5760038101905062ffffff818a015116603f8160121c168401518060081b905060ff603f83600c1c1686015116810190508060081b905060ff603f8360061c1686015116810190508060081b905060ff603f831686015116810190508060e01b90508084526004840193505050611dc5565b506003860660018114611e585760028114611e6857611e73565b613d3d60f01b6002830352611e73565b603d60f81b60018303525b508484525050819450505050505b919050565b611ea0828260405180602001604052806000815250612192565b5050565b611ead82611559565b611eec576040517f08c379a0000000000000000000000000000000000000000000000000000000008152600401611ee390613049565b60405180910390fd5b80600660008481526020019081526020016000209080519060200190611f139291906123ce565b505050565b611fb2838383604051602401611f3093929190612eeb565b6040516020818303038152906040527fe3849f79000000000000000000000000000000000000000000000000000000007bffffffffffffffffffffffffffffffffffffffffffffffffffffffff19166020820180517bffffffffffffffffffffffffffffffffffffffffffffffffffffffff8381831617835250505050611fcd565b505050565b6001816000016000828254019250508190555050565b60008151905060006a636f6e736f6c652e6c6f679050602083016000808483855afa5050505050565b505050565b600061201c8473ffffffffffffffffffffffffffffffffffffffff166121ed565b15612185578373ffffffffffffffffffffffffffffffffffffffff1663150b7a026120456115c5565b8786866040518563ffffffff1660e01b81526004016120679493929190612e39565b602060405180830381600087803b15801561208157600080fd5b505af19250505080156120b257506040513d601f19601f820116820180604052508101906120af9190612712565b60015b612135573d80600081146120e2576040519150601f19603f3d011682016040523d82523d6000602084013e6120e7565b606091505b5060008151141561212d576040517f08c379a000000000000000000000000000000000000000000000000000000000815260040161212490612f29565b60405180910390fd5b805181602001fd5b63150b7a0260e01b7bffffffffffffffffffffffffffffffffffffffffffffffffffffffff1916817bffffffffffffffffffffffffffffffffffffffffffffffffffffffff19161491505061218a565b600190505b949350505050565b61219c8383612200565b6121a96000848484611ffb565b6121e8576040517f08c379a00000000000000000000000000000000000000000000000000000000081526004016121df90612f29565b60405180910390fd5b505050565b600080823b905060008111915050919050565b600073ffffffffffffffffffffffffffffffffffffffff168273ffffffffffffffffffffffffffffffffffffffff161415612270576040517f08c379a000000000000000000000000000000000000000000000000000000000815260040161226790613069565b60405180910390fd5b61227981611559565b156122b9576040517f08c379a00000000000000000000000000000000000000000000000000000000081526004016122b090612f49565b60405180910390fd5b6122c560008383611ff6565b6001600360008473ffffffffffffffffffffffffffffffffffffffff1673ffffffffffffffffffffffffffffffffffffffff16815260200190815260200160002060008282546123159190613212565b92505081905550816002600083815260200190815260200160002060006101000a81548173ffffffffffffffffffffffffffffffffffffffff021916908373ffffffffffffffffffffffffffffffffffffffff160217905550808273ffffffffffffffffffffffffffffffffffffffff16600073ffffffffffffffffffffffffffffffffffffffff167fddf252ad1be2c89b69c2b068fc378daa952ba7f163c4a11628f55a4df523b3ef60405160405180910390a45050565b8280546123da906133dd565b90600052602060002090601f0160209004810192826123fc5760008555612443565b82601f1061241557805160ff1916838001178555612443565b82800160010185558215612443579182015b82811115612442578251825591602001919060010190612427565b5b5090506124509190612454565b5090565b5b8082111561246d576000816000905550600101612455565b5090565b600061248461247f84613189565b613164565b90508281526020810184848401111561249c57600080fd5b6124a784828561339b565b509392505050565b6000813590506124be81613c60565b92915050565b6000813590506124d381613c77565b92915050565b6000813590506124e881613c8e565b92915050565b6000815190506124fd81613c8e565b92915050565b600082601f83011261251457600080fd5b8135612524848260208601612471565b91505092915050565b60008135905061253c81613ca5565b92915050565b60006020828403121561255457600080fd5b6000612562848285016124af565b91505092915050565b6000806040838503121561257e57600080fd5b600061258c858286016124af565b925050602061259d858286016124af565b9150509250929050565b6000806000606084860312156125bc57600080fd5b60006125ca868287016124af565b93505060206125db868287016124af565b92505060406125ec8682870161252d565b9150509250925092565b6000806000806080858703121561260c57600080fd5b600061261a878288016124af565b945050602061262b878288016124af565b935050604061263c8782880161252d565b925050606085013567ffffffffffffffff81111561265957600080fd5b61266587828801612503565b91505092959194509250565b6000806040838503121561268457600080fd5b6000612692858286016124af565b92505060206126a3858286016124c4565b9150509250929050565b600080604083850312156126c057600080fd5b60006126ce858286016124af565b92505060206126df8582860161252d565b9150509250929050565b6000602082840312156126fb57600080fd5b6000612709848285016124d9565b91505092915050565b60006020828403121561272457600080fd5b6000612732848285016124ee565b91505092915050565b60006020828403121561274d57600080fd5b600061275b8482850161252d565b91505092915050565b61276d81613327565b82525050565b61277c81613339565b82525050565b600061278d826131cf565b61279781856131e5565b93506127a78185602086016133aa565b6127b081613576565b840191505092915050565b60006127c6826131da565b6127d081856131f6565b93506127e08185602086016133aa565b6127e981613576565b840191505092915050565b60006127ff826131da565b6128098185613207565b93506128198185602086016133aa565b80840191505092915050565b60008154612832816133dd565b61283c8186613207565b9450600182166000811461285757600181146128685761289b565b60ff1983168652818601935061289b565b612871856131ba565b60005b8381101561289357815481890152600182019150602081019050612874565b838801955050505b50505092915050565b60006128b16032836131f6565b91506128bc82613587565b604082019050919050565b60006128d4601c836131f6565b91506128df826135d6565b602082019050919050565b60006128f7600a83613207565b9150612902826135ff565b600a82019050919050565b600061291a6024836131f6565b915061292582613628565b604082019050919050565b600061293d6019836131f6565b915061294882613677565b602082019050919050565b6000612960606383613207565b915061296b826136a0565b606382019050919050565b60006129836024836131f6565b915061298e8261373b565b604082019050919050565b60006129a6600b83613207565b91506129b18261378a565b600b82019050919050565b60006129c9602c836131f6565b91506129d4826137b3565b604082019050919050565b60006129ec600d83613207565b91506129f782613802565b600d82019050919050565b6000612a0f600183613207565b9150612a1a8261382b565b600182019050919050565b6000612a326038836131f6565b9150612a3d82613854565b604082019050919050565b6000612a55602a836131f6565b9150612a60826138a3565b604082019050919050565b6000612a786029836131f6565b9150612a83826138f2565b604082019050919050565b6000612a9b602e836131f6565b9150612aa682613941565b604082019050919050565b6000612abe600283613207565b9150612ac982613990565b600282019050919050565b6000612ae16020836131f6565b9150612aec826139b9565b602082019050919050565b6000612b046031836131f6565b9150612b0f826139e2565b604082019050919050565b6000612b27602c836131f6565b9150612b3282613a31565b604082019050919050565b6000612b4a6029836131f6565b9150612b5582613a80565b604082019050919050565b6000612b6d602f836131f6565b9150612b7882613acf565b604082019050919050565b6000612b90600a83613207565b9150612b9b82613b1e565b600a82019050919050565b6000612bb36021836131f6565b9150612bbe82613b47565b604082019050919050565b6000612bd6600a83613207565b9150612be182613b96565b600a82019050919050565b6000612bf9601d83613207565b9150612c0482613bbf565b601d82019050919050565b6000612c1c6031836131f6565b9150612c2782613be8565b604082019050919050565b6000612c3f600583613207565b9150612c4a82613c37565b600582019050919050565b612c5e81613391565b82525050565b6000612c7082846127f4565b915081905092915050565b6000612c8782856127f4565b9150612c9382846127f4565b91508190509392505050565b6000612cab82866127f4565b9150612cb682612a02565b9150612cc282856127f4565b9150612ccd82612a02565b9150612cd982846127f4565b9150819050949350505050565b6000612cf28287612825565b9150612cfe82866127f4565b9150612d0a8285612825565b9150612d1682846127f4565b9150612d21826129df565b915081905095945050505050565b6000612d3a826128ea565b9150612d4682846127f4565b915081905092915050565b6000612d5c82612999565b9150612d6882846127f4565b915081905092915050565b6000612d7e82612b83565b9150612d8a82856127f4565b9150612d9582612953565b9150612da182846127f4565b9150612dac82612ab1565b91508190509392505050565b6000612dc382612bc9565b9150612dcf82846127f4565b915081905092915050565b6000612de582612bec565b9150612df182846127f4565b915081905092915050565b6000612e0782612c32565b9150612e1382846127f4565b915081905092915050565b6000602082019050612e336000830184612764565b92915050565b6000608082019050612e4e6000830187612764565b612e5b6020830186612764565b612e686040830185612c55565b8181036060830152612e7a8184612782565b905095945050505050565b6000604082019050612e9a6000830185612764565b612ea76020830184612c55565b9392505050565b6000602082019050612ec36000830184612773565b92915050565b60006020820190508181036000830152612ee381846127bb565b905092915050565b60006060820190508181036000830152612f0581866127bb565b9050612f146020830185612c55565b612f216040830184612764565b949350505050565b60006020820190508181036000830152612f42816128a4565b9050919050565b60006020820190508181036000830152612f62816128c7565b9050919050565b60006020820190508181036000830152612f828161290d565b9050919050565b60006020820190508181036000830152612fa281612930565b9050919050565b60006020820190508181036000830152612fc281612976565b9050919050565b60006020820190508181036000830152612fe2816129bc565b9050919050565b6000602082019050818103600083015261300281612a25565b9050919050565b6000602082019050818103600083015261302281612a48565b9050919050565b6000602082019050818103600083015261304281612a6b565b9050919050565b6000602082019050818103600083015261306281612a8e565b9050919050565b6000602082019050818103600083015261308281612ad4565b9050919050565b600060208201905081810360008301526130a281612af7565b9050919050565b600060208201905081810360008301526130c281612b1a565b9050919050565b600060208201905081810360008301526130e281612b3d565b9050919050565b6000602082019050818103600083015261310281612b60565b9050919050565b6000602082019050818103600083015261312281612ba6565b9050919050565b6000602082019050818103600083015261314281612c0f565b9050919050565b600060208201905061315e6000830184612c55565b92915050565b600061316e61317f565b905061317a828261340f565b919050565b6000604051905090565b600067ffffffffffffffff8211156131a4576131a3613547565b5b6131ad82613576565b9050602081019050919050565b60008190508160005260206000209050919050565b600081519050919050565b600081519050919050565b600082825260208201905092915050565b600082825260208201905092915050565b600081905092915050565b600061321d82613391565b915061322883613391565b9250827fffffffffffffffffffffffffffffffffffffffffffffffffffffffffffffffff0382111561325d5761325c6134ba565b5b828201905092915050565b600061327382613391565b915061327e83613391565b92508261328e5761328d6134e9565b5b828204905092915050565b60006132a482613391565b91506132af83613391565b9250817fffffffffffffffffffffffffffffffffffffffffffffffffffffffffffffffff04831182151516156132e8576132e76134ba565b5b828202905092915050565b60006132fe82613391565b915061330983613391565b92508282101561331c5761331b6134ba565b5b828203905092915050565b600061333282613371565b9050919050565b60008115159050919050565b60007fffffffff0000000000000000000000000000000000000000000000000000000082169050919050565b600073ffffffffffffffffffffffffffffffffffffffff82169050919050565b6000819050919050565b82818337600083830152505050565b60005b838110156133c85780820151818401526020810190506133ad565b838111156133d7576000848401525b50505050565b600060028204905060018216806133f557607f821691505b6020821081141561340957613408613518565b5b50919050565b61341882613576565b810181811067ffffffffffffffff8211171561343757613436613547565b5b80604052505050565b600061344b82613391565b91507fffffffffffffffffffffffffffffffffffffffffffffffffffffffffffffffff82141561347e5761347d6134ba565b5b600182019050919050565b600061349482613391565b915061349f83613391565b9250826134af576134ae6134e9565b5b828206905092915050565b7f4e487b7100000000000000000000000000000000000000000000000000000000600052601160045260246000fd5b7f4e487b7100000000000000000000000000000000000000000000000000000000600052601260045260246000fd5b7f4e487b7100000000000000000000000000000000000000000000000000000000600052602260045260246000fd5b7f4e487b7100000000000000000000000000000000000000000000000000000000600052604160045260246000fd5b6000601f19601f8301169050919050565b7f4552433732313a207472616e7366657220746f206e6f6e20455243373231526560008201527f63656976657220696d706c656d656e7465720000000000000000000000000000602082015250565b7f4552433732313a20746f6b656e20616c7265616479206d696e74656400000000600082015250565b7f54484952445f574f524400000000000000000000000000000000000000000000600082015250565b7f4552433732313a207472616e7366657220746f20746865207a65726f2061646460008201527f7265737300000000000000000000000000000000000000000000000000000000602082015250565b7f4552433732313a20617070726f766520746f2063616c6c657200000000000000600082015250565b7f222c20226465736372697074696f6e223a20224120686967686c79206163636c60008201527f61696d656420636f6c6c656374696f6e206f6620737175617265732e222c202260208201527f696d616765223a2022646174613a696d6167652f7376672b786d6c3b6261736560408201527f36342c0000000000000000000000000000000000000000000000000000000000606082015250565b7f416c6c20617661696c61626c65204e4654732068617665206265656e206d696e60008201527f7465642100000000000000000000000000000000000000000000000000000000602082015250565b7f5345434f4e445f574f5244000000000000000000000000000000000000000000600082015250565b7f4552433732313a206f70657261746f7220717565727920666f72206e6f6e657860008201527f697374656e7420746f6b656e0000000000000000000000000000000000000000602082015250565b7f3c2f746578743e3c2f7376673e00000000000000000000000000000000000000600082015250565b7f2000000000000000000000000000000000000000000000000000000000000000600082015250565b7f4552433732313a20617070726f76652063616c6c6572206973206e6f74206f7760008201527f6e6572206e6f7220617070726f76656420666f7220616c6c0000000000000000602082015250565b7f4552433732313a2062616c616e636520717565727920666f7220746865207a6560008201527f726f206164647265737300000000000000000000000000000000000000000000602082015250565b7f4552433732313a206f776e657220717565727920666f72206e6f6e657869737460008201527f656e7420746f6b656e0000000000000000000000000000000000000000000000602082015250565b7f45524337323155524953746f726167653a2055524920736574206f66206e6f6e60008201527f6578697374656e7420746f6b656e000000000000000000000000000000000000602082015250565b7f227d000000000000000000000000000000000000000000000000000000000000600082015250565b7f4552433732313a206d696e7420746f20746865207a65726f2061646472657373600082015250565b7f45524337323155524953746f726167653a2055524920717565727920666f722060008201527f6e6f6e6578697374656e7420746f6b656e000000000000000000000000000000602082015250565b7f4552433732313a20617070726f76656420717565727920666f72206e6f6e657860008201527f697374656e7420746f6b656e0000000000000000000000000000000000000000602082015250565b7f4552433732313a207472616e73666572206f6620746f6b656e2074686174206960008201527f73206e6f74206f776e0000000000000000000000000000000000000000000000602082015250565b7f4552433732314d657461646174613a2055524920717565727920666f72206e6f60008201527f6e6578697374656e7420746f6b656e0000000000000000000000000000000000602082015250565b7f7b226e616d65223a202200000000000000000000000000000000000000000000600082015250565b7f4552433732313a20617070726f76616c20746f2063757272656e74206f776e6560008201527f7200000000000000000000000000000000000000000000000000000000000000602082015250565b7f46495253545f574f524400000000000000000000000000000000000000000000600082015250565b7f646174613a6170706c69636174696f6e2f6a736f6e3b6261736536342c000000600082015250565b7f4552433732313a207472616e736665722063616c6c6572206973206e6f74206f60008201527f776e6572206e6f7220617070726f766564000000000000000000000000000000602082015250565b7f434f4c4f52000000000000000000000000000000000000000000000000000000600082015250565b613c6981613327565b8114613c7457600080fd5b50565b613c8081613339565b8114613c8b57600080fd5b50565b613c9781613345565b8114613ca257600080fd5b50565b613cae81613391565b8114613cb957600080fd5b5056fe416e204e465420772f20494420257320686173206265656e206d696e74656420746f2025734142434445464748494a4b4c4d4e4f505152535455565758595a6162636465666768696a6b6c6d6e6f707172737475767778797a303132333435363738392b2fa2646970667358221220125bc772b942b8f00c48767e12772764b49381658c29ca86e4e84d20d8a240d264736f6c634300080400333c73766720786d6c6e733d27687474703a2f2f7777772e77332e6f72672f323030302f73766727207072657365727665417370656374526174696f3d27784d696e594d696e206d656574272076696577426f783d273020302033353020333530273e3c7374796c653e2e62617365207b2066696c6c3a2077686974653b20666f6e742d66616d696c793a2073657269663b20666f6e742d73697a653a20323470783b207d3c2f7374796c653e3c726563742077696474683d273130302527206865696768743d2731303025272066696c6c3d27272f3e3c7465787420783d273530252720793d273530252720636c6173733d27626173652720646f6d696e616e742d626173656c696e653d276d6964646c652720746578742d616e63686f723d276d6964646c65273e",
  "linkReferences": {},
  "deployedLinkReferences": {}
}